:100000000C9432000C94FA060C9423070C944C07C1
:100010000C941B090C94F2080C94C9080C947708F2
:100020000C94A0080C944E080C9425080C94FC0722
:100030000C944F000C9444090C944F000C946D09DF
:100040000C944F000C944F000C944F000C944F00F4
:100050000C944F00A307AD07B707C107CB07D5071F
:10006000DF07E90711241FBECFE5D8E0DEBFCDBF13
:1000700011E0A0E6B0E0E0E8F3E102C005900D92E7
:10008000A832B107D9F721E0A8E2B1E001C01D9282
:10009000AE34B207E1F70E9454040C94BE090C94EC
:1000A0000000CF93C82F61E08BE00E948206C13030
:1000B00089F018F0C230D9F01EC061E08BE00E94D8
:1000C000820661E08DE00E94820660E08EE00E9480
:1000D000820611C061E08BE00E94820661E08EE042
:1000E0000E94820660E08DE00E94820604C060E00B
:1000F0008BE00E948206CF91089561E085E10E9425
:10010000820661E084E10E94820661E083E10E9450
:10011000820661E082E10E94820663E087E10E943C
:10012000820663E086E10E94820663E08DE10E9420
:10013000820663E08BE10E9482060895FF920F938E
:100140001F93CF93DF9300E010E00F2EF4E5FF2E16
:10015000F02D33C060E0F801EC59FF4F80810E9420
:100160008206C0E0D0E01DC0FE01E05AFF4F808152
:100170000E94E106811114C0F801EE0FFF1FEE0F7F
:10018000FF1FE859FF4FEC0FFD1FF0808EE591E057
:1001900005C0E0E9F1E03197F1F701970097C9F761
:1001A0002196C430D10504F3F801EC59FF4F61E00A
:1001B00080810E9482060F5F1F4F0430110554F2A8
:1001C0008F2DDF91CF911F910F91FF900895FF9296
:1001D0000F931F93CF93DF9300E010E00F2EF4E511
:1001E000FF2EF02D29C060E0F801EC59FF4F80810F
:1001F0000E948206C0E0D0E013C0FE01E05AFF4F2B
:1002000080810E94E10681110AC0F801EE0FFF1FF4
:10021000EE0FFF1FE859FF4FEC0FFD1FF0802196F6
:10022000C430D10554F3F801EC59FF4F61E08081EF
:100230000E9482060F5F1F4F04301105A4F28F2D1C
:10024000DF91CF911F910F91FF9008950F931F930E
:10025000CF93C82F60E083E00E9482066C2F661F58
:100260006627661F8CE00E948206C6FB662760F93F
:100270008AE00E948206C5FB662760F989E00E9439
:100280008206C4FB662760F988E00E94820661E06E
:1002900082E00E94820600EA1FE0C8010197F1F7A0
:1002A00060E082E00E948206C8010197F1F7C3FB7B
:1002B000662760F98CE00E948206C2FB662760F91F
:1002C0008AE00E948206C1FB662760F989E00E94ED
:1002D00082066C2F617088E00E94820661E082E0F5
:1002E0000E948206C8010197F1F760E082E00E9457
:1002F0008206C8010197F1F7CF911F910F910895E0
:1003000084EF91E005C0E0E9F1E03197F1F7019762
:100310000097C9F782E00E94260188E20E94260128
:100320008CE00E94260181E00E94260180EA9FE085
:100330000197F1F786E00E9426010895823031F09E
:10034000833031F0813029F4605C03C06C5E01C001
:100350006C5A862F80680E942601089581E00E94D1
:10036000260180E49FE10197F1F708950F931F9311
:10037000CF93C82F61E083E00E9482066C2F661F36
:100380006627661F8CE00E948206C6FB662760F91E
:100390008AE00E948206C5FB662760F989E00E9418
:1003A0008206C4FB662760F988E00E94820661E04D
:1003B00082E00E94820600EA1FE0C8010197F1F77F
:1003C00060E082E00E948206C8010197F1F7C3FB5A
:1003D000662760F98CE00E948206C2FB662760F9FE
:1003E0008AE00E948206C1FB662760F989E00E94CC
:1003F00082066C2F617088E00E94820661E082E0D4
:100400000E948206C8010197F1F760E082E00E9435
:100410008206C8010197F1F7CF911F910F910895BE
:100420000E94B60108950F931F93CF938C01C0E0F3
:1004300003C0CF5F0E941002F801EC0FF11D808114
:100440008111F7CFCF911F910F910895813059F00D
:1004500028F0823069F0833081F0089560E08FE009
:100460000E948206089560E084E00E94820608955A
:1004700060E085E00E948206089560E086E00E94C8
:10048000820608956130E1F4813059F028F082301D
:1004900069F0833081F0089561E08FE00E94820668
:1004A000089561E084E00E948206089561E085E09D
:1004B0000E948206089561E086E00E948206089507
:1004C000813059F028F0823069F0833081F008954E
:1004D00060E08FE00E948206089560E084E00E9460
:1004E0008206089560E085E00E948206089560E03B
:1004F00086E00E94820608958130A9F028F08230BB
:1005000009F1833071F108958FE00E94E10688239C
:1005100029F060E08FE00E948206089561E08FE09C
:100520000E948206089584E00E94E106882329F053
:1005300060E084E00E948206089561E084E00E9409
:100540008206089585E00E94E106882329F060E094
:1005500085E00E948206089561E085E00E9482069F
:10056000089586E00E94E106882329F060E086E095
:100570000E948206089561E086E00E948206089546
:1005800080914A0190914B01A0914C01B0914D0195
:100590000196A11DB11D80934A0190934B01A09338
:1005A0004C01B0934D0186E082BF60914A01709189
:1005B0004B0180914C0190914D0128EE33E040E0D9
:1005C00050E00E949609672B682B692B09F09CC0AC
:1005D00080917B00813079F028F08230A9F083305F
:1005E000C9F01DC061E083E00E94420210922F0119
:1005F00010922E0114C060E083E00E94420210922B
:100600002F0110922E010BC081E080932F011092D8
:100610002E0105C010922F0181E080932E01809160
:100620007A00813079F028F08230A9F08330C9F067
:100630001DC061E082E00E94420210922D011092E2
:100640002C0114C060E082E00E94420210922D0151
:1006500010922C010BC081E080932D0110922C018F
:1006600005C010922D0181E080932C0180917900CA
:10067000813079F028F08230A9F08330C9F01DC0B4
:1006800061E081E00E94420210922B0110922A0147
:1006900014C060E081E00E94420210922B0110928F
:1006A0002A010BC081E080932B0110922A0105C022
:1006B00010922B0181E080932A0180917800813093
:1006C00079F028F08230A9F08330C9F01DC061E0D4
:1006D00080E00E944202109229011092280114C069
:1006E00060E080E00E9442021092290110922801ED
:1006F0000BC081E0809329011092280105C010925F
:10070000290181E08093280160914A0170914B0199
:1007100080914C0190914D0120ED37E040E050E098
:100720000E949609672B682B692BD9F480912E01C2
:10073000813019F483E00E947C0280912C01813089
:1007400019F482E00E947C0280912A01813011F428
:100750000E947C0280912801813019F480E00E947F
:100760007C0260914A0170914B0180914C01909103
:100770004D0120EA3FE040E050E00E949609672BDF
:10078000682B692B19F580912F01813019F483E0D2
:100790000E947C0280912D01813019F482E00E9438
:1007A0007C0280912B01813011F40E947C028091A7
:1007B0002901813019F480E00E947C0210924A01E4
:1007C00010924B0110924C0110924D0108950F931D
:1007D0001F93CF93DF9300D000D01F92CDB7DEB729
:1007E0000E94AE0160E080E00E949E0184E990E0FA
:1007F0000E94130210E015C00E949E00843589F00B
:10080000E1E0F0E0EC0FFD1FE10FF11D808301E05E
:10081000010F612F81E00E949E018AE20E94100276
:10082000102F153048F320E011E010C0822F90E027
:10083000E1E0F0E0EC0FFD1FE80FF91F3081FC0153
:10084000ED5DFE4F8081381310E02F5F253070F38F
:1008500060E082E00E949E01112369F084EA90E04A
:100860000E94130260E083E00E949E0183EB90E00F
:100870000E94130204C087EC90E00E94130288E8F3
:1008800093E105C0E0E9F1E03197F1F701970097B6
:10089000C9F7812F0F900F900F900F900F90DF915D
:1008A000CF911F910F9108950E947D000E948001B9
:1008B00062E080E00E9475070E94F30780EC92E0FE
:1008C0000E94F707789480E00E94260281E00E944F
:1008D000260283E00E94260282E00E94260282E035
:1008E0000E9451000E94E7038823E1F30E94AE01B9
:1008F00060E080E00E949E018BED90E00E94130278
:1009000060E081E00E949E0187EE90E00E94130269
:1009100060E082E00E949E0183EF90E00E9413025B
:1009200060E083E00E949E018FEF90E00E9413023E
:10093000A12CB12C00E010E0D4E5C12CD12C760123
:100940004EC00E949E00C82F63E180E00E949E017D
:100950008C2F0E941002C73399F020F4CF3209F493
:1009600039C03DC0C833D1F0C93331F138C08FEF41
:10097000C81AD80AE80AF80A80EA9FE00197F1F756
:100980000E94E700873399F329C08FEFC81AD80A6D
:10099000E80AF80A80EA9FE00197F1F70E94E70071
:1009A000883399F31BC08FEFC81AD80AE80AF80AEF
:1009B00080EA9FE00197F1F70E94E700893399F3FD
:1009C0000DC08FEFC81AD80AE80AF80A80EA9FE03B
:1009D0000197F1F70E94E7008F3299F3DC2FD435AD
:1009E00009F4AFCF86E9C816D104E104F10408F098
:1009F0006EC0D73351F020F4DF3209F44FC0CDC0C0
:100A0000D833D9F0D93389F1C8C011110DC0809104
:100A10007B00833021F080917B00823009F41F5FDE
:100A200010927B001F5FB9C0113011F41F5FB5C079
:100A300081E080937B0010E0B0C001110DC0809177
:100A40007A00833021F080917A00823009F40F5FC0
:100A500010927A000F5FA1C0013011F40F5F9DC0AA
:100A600081E080937A0000E098C0B1100DC08091C1
:100A70007900833021F080917900823009F4B394B9
:100A800010927900B39489C081E0B81202C0B39487
:100A900084C081E080937900B12C7FC0A1100DC08B
:100AA00080917800833021F080917800823009F4C1
:100AB000A39410927800A39470C081E0A81202C0A1
:100AC000A3946BC081E080937800A12C66C084EF72
:100AD000C81681E0D806E104F10458F5D73349F08F
:100AE00018F4DF32F1F050C0D83359F0D93389F01F
:100AF0004BC082E080937B00A12CB12C00E010E081
:100B00004CC082E080937A00A12CB12C00E010E070
:100B100044C082E080937900A12CB12C00E010E069
:100B20003CC082E080937800A12CB12C00E010E062
:100B300034C0D73349F018F4DF32F1F02AC0D8338B
:100B400059F0D93389F025C083E080937B00A12C34
:100B5000B12C00E010E021C083E080937A00A12C4A
:100B6000B12C00E010E019C083E080937900A12C43
:100B7000B12C00E010E011C083E080937800A12C3C
:100B8000B12C00E010E009C0A12CB12C00E010E075
:100B900004C0A12CB12C00E010E080917B008130DA
:100BA00079F028F08230A9F08330E1F023C068E0CA
:100BB00080E00E949E018BE091E00E9413021AC027
:100BC00068E080E00E949E0181E191E00E941302B2
:100BD00011C068E080E00E949E0187E191E00E94E0
:100BE000130208C068E080E00E949E018DE191E060
:100BF0000E94130280917A00813079F028F08230CF
:100C0000A9F08330E1F023C068E081E00E949E01FA
:100C10008BE091E00E9413021AC068E081E00E941C
:100C20009E0181E191E00E94130211C068E081E021
:100C30000E949E0187E191E00E94130208C068E0D3
:100C400081E00E949E018DE191E00E94130280915B
:100C50007900813079F028F08230A9F08330E1F01A
:100C600023C068E082E00E949E018BE091E00E9438
:100C700013021AC068E082E00E949E0181E191E0C7
:100C80000E94130211C068E082E00E949E0187E189
:100C900091E00E94130208C068E082E00E949E0179
:100CA0008DE191E00E94130280917800813079F00B
:100CB00028F08230A9F08330E1F03ECE68E083E096
:100CC0000E949E018BE091E00E94130235CE68E005
:100CD00083E00E949E0181E191E00E9413022CCEEC
:100CE00068E083E00E949E0187E191E00E94130288
:100CF00023CE68E083E00E949E018DE191E00E9496
:100D000013021ACEE82FE695E695E695482F477030
:100D10006230B0F4AE2FB0E01496AA0FBB1FA458F7
:100D2000BF4F0D90BC91A02D2C9181E090E0042E3E
:100D300002C0880F991F0A94E2F7822B8C9316C089
:100D4000AE2FB0E01496AA0FBB1FA458BF4F0D9052
:100D5000BC91A02D8C9121E030E0042E02C0220F26
:100D6000331F0A94E2F7209528232C93613011F069
:100D7000633099F4F0E0EE0FFF1FE458FF4F01904D
:100D8000F081E02D208181E090E002C0880F991F62
:100D90004A95E2F7822B80830895F0E0EE0FFF1F63
:100DA000E458FF4F0190F081E02D208181E090E038
:100DB00002C0880F991F4A95E2F7809582238083AD
:100DC0000895E82FE695E695E695282F2770F0E040
:100DD0003896EE0FFF1FE458FF4F0190F081E02D91
:100DE0009081892F90E002C0959587952A95E2F72A
:100DF000817008951F920F920FB60F9211242F93B6
:100E00003F934F935F936F937F938F939F93AF9392
:100E1000BF93EF93FF93E0913401F0913501309748
:100E200009F00995FF91EF91BF91AF919F918F913B
:100E30007F916F915F914F913F912F910F900FBED6
:100E40000F901F9018951F920F920FB60F921124BA
:100E50002F933F934F935F936F937F938F939F93C2
:100E6000AF93BF93EF93FF93E0913201F091330181
:100E7000309709F00995FF91EF91BF91AF919F9144
:100E80008F917F916F915F914F913F912F910F9033
:100E90000FBE0F901F9018951F920F920FB60F92D2
:100EA00011242F933F934F935F936F937F938F936F
:100EB0009F93AF93BF93EF93FF93E0913001F09135
:100EC0003101309709F00995FF91EF91BF91AF91F2
:100ED0009F918F917F916F915F914F913F912F9152
:100EE0000F900FBE0F901F901895813069F028F079
:100EF000823089F08330B1F01BC083B78F7B83BF12
:100F000083B7877F83BF14C083B7806483BF83B7F1
:100F1000877F83BF0DC083B78F7B83BF83B7886014
:100F200083BF06C083B7806483BF83B7886083BFF5
:100F3000862F90E08830910508F054C0FC01E65DF2
:100F4000FF4F0C94B80983B78E7F83BF83B78D7F23
:100F500083BF83B78B7F83BF089583B7816083BFCF
:100F600083B78D7F83BF83B78B7F83BF089583B79C
:100F70008E7F83BF83B7826083BF83B78B7F83BF3E
:100F8000089583B7816083BF83B7826083BF83B7CF
:100F90008B7F83BF089583B78E7F83BF83B78D7F99
:100FA00083BF83B7846083BF089583B7816083BFA5
:100FB00083B78D7F83BF83B7846083BF089583B772
:100FC0008E7F83BF83B7826083BF83B7846083BF14
:100FD000089583B7816083BF83B7826083BF83B77F
:100FE000846083BF089589B7816089BF0895909315
:100FF00045018093440108951F920F920FB60F92FE
:1010000011242F933F934F935F936F937F938F930D
:101010009F93AF93BF93EF93FF93E0914401F091BF
:101020004501309709F00995FF91EF91BF91AF917C
:101030009F918F917F916F915F914F913F912F91F0
:101040000F900FBE0F901F9018951F920F920FB622
:101050000F9211242F933F934F935F936F937F933E
:101060008F939F93AF93BF93EF93FF93E0914201D0
:10107000F0914301309709F00995FF91EF91BF91ED
:10108000AF919F918F917F916F915F914F913F9120
:101090002F910F900FBE0F901F9018951F920F92D7
:1010A0000FB60F9211242F933F934F935F936F933B
:1010B0007F938F939F93AF93BF93EF93FF93E091B1
:1010C0004001F0914101309709F00995FF91EF91AE
:1010D000BF91AF919F918F917F916F915F914F9150
:1010E0003F912F910F900FBE0F901F9018951F9258
:1010F0000F920FB60F9211242F933F934F935F934C
:101100006F937F938F939F93AF93BF93EF93FF93CF
:10111000E0913E01F0913F01309709F00995FF9170
:10112000EF91BF91AF919F918F917F916F915F915F
:101130004F913F912F910F900FBE0F901F901895D8
:101140001F920F920FB60F9211242F933F934F933C
:101150005F936F937F938F939F93AF93BF93EF931F
:10116000FF93E0913C01F0913D01309709F0099522
:10117000FF91EF91BF91AF919F918F917F916F916F
:101180005F914F913F912F910F900FBE0F901F9045
:1011900018951F920F920FB60F9211242F933F9321
:1011A0004F935F936F937F938F939F93AF93BF936F
:1011B000EF93FF93E0913A01F0913B01309709F0F2
:1011C0000995FF91EF91BF91AF919F918F917F9181
:1011D0006F915F914F913F912F910F900FBE0F90A4
:1011E0001F9018951F920F920FB60F9211242F93F4
:1011F0003F934F935F936F937F938F939F93AF939F
:10120000BF93EF93FF93E0913801F091390130974C
:1012100009F00995FF91EF91BF91AF919F918F9147
:101220007F916F915F914F913F912F910F900FBEE2
:101230000F901F9018951F920F920FB60F921124C6
:101240002F933F934F935F936F937F938F939F93CE
:10125000AF93BF93EF93FF93E0913601F091370185
:10126000309709F00995FF91EF91BF91AF919F9150
:101270008F917F916F915F914F913F912F910F903F
:101280000FBE0F901F9018951F920F920FB60F92DE
:1012900011242F933F934F935F936F937F938F937B
:1012A0009F93AF93BF93EF93FF93E0914801F09129
:1012B0004901309709F00995FF91EF91BF91AF91E6
:1012C0009F918F917F916F915F914F913F912F915E
:1012D0000F900FBE0F901F9018951F920F920FB690
:1012E0000F9211242F933F934F935F936F937F93AC
:1012F0008F939F93AF93BF93EF93FF93E09146013A
:10130000F0914701309709F00995FF91EF91BF9156
:10131000AF919F918F917F916F915F914F913F918D
:101320002F910F900FBE0F901F901895A1E21A2ECB
:10133000AA1BBB1BFD010DC0AA1FBB1FEE1FFF1F79
:10134000A217B307E407F50720F0A21BB30BE40BC9
:10135000F50B661F771F881F991F1A9469F7609510
:101360007095809590959B01AC01BD01CF010895CA
:10137000EE0FFF1F0590F491E02D0994F894FFCF34
:1013800017161D1B151413123738392F3435362A0A
:101390003132332D43303D2B010101013B00380038
:1013A000350032003A003700340031003900360091
:1013B00033003000456E7465722050617373776F2F
:1013C0007264200052696768742050617373776F8C
:1013D00072640057656C636F6D6520746F20796F60
:1013E0007572206361720057726F6E67205061736F
:1013F00073776F726420202121210052494748549D
:10140000203A204F4646004C45465420203A204F73
:1014100046460046524F4E54203A204F4646004220
:1014200041434B20203A204F4646004F4E2020207B
:10143000004F464620200053484F5254004C4F4E18
:0814400047200031323334353E
:00000001FF
